{
  "contractName": "Attentions",
  "abi": [
    {
      "inputs": [],
      "stateMutability": "nonpayable",
      "type": "constructor"
    },
    {
      "anonymous": false,
      "inputs": [
        {
          "indexed": false,
          "internalType": "uint256",
          "name": "downvotes",
          "type": "uint256"
        },
        {
          "indexed": false,
          "internalType": "uint256",
          "name": "id",
          "type": "uint256"
        }
      ],
      "name": "Downvote",
      "type": "event"
    },
    {
      "anonymous": false,
      "inputs": [
        {
          "indexed": false,
          "internalType": "uint256",
          "name": "id",
          "type": "uint256"
        },
        {
          "indexed": false,
          "internalType": "string",
          "name": "value",
          "type": "string"
        }
      ],
      "name": "TextAdded",
      "type": "event"
    },
    {
      "anonymous": false,
      "inputs": [
        {
          "indexed": false,
          "internalType": "uint256",
          "name": "upvotes",
          "type": "uint256"
        },
        {
          "indexed": false,
          "internalType": "uint256",
          "name": "id",
          "type": "uint256"
        }
      ],
      "name": "Upvote",
      "type": "event"
    },
    {
      "inputs": [
        {
          "internalType": "address",
          "name": "",
          "type": "address"
        }
      ],
      "name": "UserEntries",
      "outputs": [
        {
          "internalType": "uint256",
          "name": "id",
          "type": "uint256"
        },
        {
          "internalType": "string",
          "name": "value",
          "type": "string"
        },
        {
          "internalType": "uint256",
          "name": "upvotes",
          "type": "uint256"
        },
        {
          "internalType": "uint256",
          "name": "downvotes",
          "type": "uint256"
        },
        {
          "internalType": "bool",
          "name": "entered",
          "type": "bool"
        },
        {
          "internalType": "address",
          "name": "user",
          "type": "address"
        }
      ],
      "stateMutability": "view",
      "type": "function",
      "constant": true
    },
    {
      "inputs": [
        {
          "internalType": "uint256",
          "name": "",
          "type": "uint256"
        }
      ],
      "name": "allUsers",
      "outputs": [
        {
          "internalType": "address",
          "name": "",
          "type": "address"
        }
      ],
      "stateMutability": "view",
      "type": "function",
      "constant": true
    },
    {
      "inputs": [],
      "name": "firstText",
      "outputs": [
        {
          "internalType": "bool",
          "name": "",
          "type": "bool"
        }
      ],
      "stateMutability": "view",
      "type": "function",
      "constant": true
    },
    {
      "inputs": [],
      "name": "owner",
      "outputs": [
        {
          "internalType": "address",
          "name": "",
          "type": "address"
        }
      ],
      "stateMutability": "view",
      "type": "function",
      "constant": true
    },
    {
      "inputs": [
        {
          "internalType": "uint256",
          "name": "",
          "type": "uint256"
        }
      ],
      "name": "pastWinners",
      "outputs": [
        {
          "internalType": "address",
          "name": "user",
          "type": "address"
        },
        {
          "internalType": "string",
          "name": "value",
          "type": "string"
        }
      ],
      "stateMutability": "view",
      "type": "function",
      "constant": true
    },
    {
      "inputs": [],
      "name": "time",
      "outputs": [
        {
          "internalType": "uint256",
          "name": "",
          "type": "uint256"
        }
      ],
      "stateMutability": "view",
      "type": "function",
      "constant": true
    },
    {
      "inputs": [],
      "name": "winner",
      "outputs": [
        {
          "internalType": "address",
          "name": "user",
          "type": "address"
        },
        {
          "internalType": "string",
          "name": "value",
          "type": "string"
        }
      ],
      "stateMutability": "view",
      "type": "function",
      "constant": true
    },
    {
      "inputs": [],
      "name": "getAllUsers",
      "outputs": [
        {
          "internalType": "address[]",
          "name": "",
          "type": "address[]"
        }
      ],
      "stateMutability": "view",
      "type": "function",
      "constant": true
    },
    {
      "inputs": [],
      "name": "getAllPastWinners",
      "outputs": [
        {
          "components": [
            {
              "internalType": "address",
              "name": "user",
              "type": "address"
            },
            {
              "internalType": "string",
              "name": "value",
              "type": "string"
            }
          ],
          "internalType": "struct Attentions.Winner[]",
          "name": "",
          "type": "tuple[]"
        }
      ],
      "stateMutability": "view",
      "type": "function",
      "constant": true
    },
    {
      "inputs": [
        {
          "internalType": "string",
          "name": "text",
          "type": "string"
        }
      ],
      "name": "addTextToAddress",
      "outputs": [],
      "stateMutability": "nonpayable",
      "type": "function"
    },
    {
      "inputs": [
        {
          "internalType": "address",
          "name": "user",
          "type": "address"
        }
      ],
      "name": "upvote",
      "outputs": [],
      "stateMutability": "nonpayable",
      "type": "function"
    },
    {
      "inputs": [
        {
          "internalType": "address",
          "name": "user",
          "type": "address"
        }
      ],
      "name": "downvote",
      "outputs": [],
      "stateMutability": "nonpayable",
      "type": "function"
    },
    {
      "inputs": [],
      "name": "endMatch",
      "outputs": [],
      "stateMutability": "nonpayable",
      "type": "function"
    }
  ],
  "bytecode": "0x60a06040526001600460006101000a81548160ff02191690831515021790555034801561002b57600080fd5b503373ffffffffffffffffffffffffffffffffffffffff1660808173ffffffffffffffffffffffffffffffffffffffff1681525050608051611c2a61007b600039600061081f0152611c2a6000f3fe608060405234801561001057600080fd5b50600436106100cf5760003560e01c80639548b91e1161008c578063dfbf53ae11610066578063dfbf53ae146101f3578063e2842d7914610212578063e499e79c14610230578063fbf9eca414610261576100cf565b80639548b91e14610184578063a2bdedf4146101b9578063a5e1a62d146101e9576100cf565b80630839b596146100d457806316ada547146100f05780631e8f5d7f1461010e5780635ca073121461012c57806389179bdb1461014a5780638da5cb5b14610166575b600080fd5b6100ee60048036038101906100e99190611397565b61027d565b005b6100f86105a5565b60405161010591906113dd565b60405180910390f35b6101166105ab565b604051610123919061159f565b60405180910390f35b6101346106f2565b60405161014191906115dc565b60405180910390f35b610164600480360381019061015f9190611397565b610705565b005b61016e61081d565b60405161017b9190611606565b60405180910390f35b61019e60048036038101906101999190611397565b610841565b6040516101b09695949392919061166b565b60405180910390f35b6101d360048036038101906101ce91906116ff565b610932565b6040516101e09190611606565b60405180910390f35b6101f1610971565b005b6101fb610a31565b60405161020992919061172c565b60405180910390f35b61021a610aeb565b604051610227919061180b565b60405180910390f35b61024a600480360381019061024591906116ff565b610b79565b60405161025892919061172c565b60405180910390f35b61027b60048036038101906102769190611962565b610c55565b005b600760008273ffffffffffffffffffffffffffffffffffffffff1673ffffffffffffffffffffffffffffffffffffffff16815260200190815260200160002060020160008154809291906102d0906119da565b919050555060076000600260000160009054906101000a900473ffffffffffffffffffffffffffffffffffffffff1673ffffffffffffffffffffffffffffffffffffffff1673ffffffffffffffffffffffffffffffffffffffff16815260200190815260200160002060020154600760008373ffffffffffffffffffffffffffffffffffffffff1673ffffffffffffffffffffffffffffffffffffffff1681526020019081526020016000206002015411156104e55760405180604001604052808273ffffffffffffffffffffffffffffffffffffffff168152602001600760008473ffffffffffffffffffffffffffffffffffffffff1673ffffffffffffffffffffffffffffffffffffffff16815260200190815260200160002060010180546103fa90611a52565b80601f016020809104026020016040519081016040528092919081815260200182805461042690611a52565b80156104735780601f1061044857610100808354040283529160200191610473565b820191906000526020600020905b81548152906001019060200180831161045657829003601f168201915b5050505050815250600260008201518160000160006101000a81548173ffffffffffffffffffffffffffffffffffffffff021916908373ffffffffffffffffffffffffffffffffffffffff16021790555060208201518160010190805190602001906104e092919061112b565b509050505b7fe104689869608ff141bf75923f32789ec6c17b79da0aca960442d0e29d7ddb39600760008373ffffffffffffffffffffffffffffffffffffffff1673ffffffffffffffffffffffffffffffffffffffff16815260200190815260200160002060020154600760008473ffffffffffffffffffffffffffffffffffffffff1673ffffffffffffffffffffffffffffffffffffffff1681526020019081526020016000206000015460405161059a929190611a84565b60405180910390a150565b60055481565b60606000805480602002602001604051908101604052809291908181526020016000905b828210156106e957838290600052602060002090600202016040518060400160405290816000820160009054906101000a900473ffffffffffffffffffffffffffffffffffffffff1673ffffffffffffffffffffffffffffffffffffffff1673ffffffffffffffffffffffffffffffffffffffff16815260200160018201805461065890611a52565b80601f016020809104026020016040519081016040528092919081815260200182805461068490611a52565b80156106d15780601f106106a6576101008083540402835291602001916106d1565b820191906000526020600020905b8154815290600101906020018083116106b457829003601f168201915b505050505081525050815260200190600101906105cf565b50505050905090565b600460009054906101000a900460ff1681565b600760008273ffffffffffffffffffffffffffffffffffffffff1673ffffffffffffffffffffffffffffffffffffffff1681526020019081526020016000206003016000815480929190610758906119da565b91905055507f5b97e9d33d168d326b3db589931c6aa291502cc19970e48b3ce6c93710602993600760008373ffffffffffffffffffffffffffffffffffffffff1673ffffffffffffffffffffffffffffffffffffffff16815260200190815260200160002060030154600760008473ffffffffffffffffffffffffffffffffffffffff1673ffffffffffffffffffffffffffffffffffffffff16815260200190815260200160002060000154604051610812929190611a84565b60405180910390a150565b7f000000000000000000000000000000000000000000000000000000000000000081565b600760205280600052604060002060009150905080600001549080600101805461086a90611a52565b80601f016020809104026020016040519081016040528092919081815260200182805461089690611a52565b80156108e35780601f106108b8576101008083540402835291602001916108e3565b820191906000526020600020905b8154815290600101906020018083116108c657829003601f168201915b5050505050908060020154908060030154908060040160009054906101000a900460ff16908060040160019054906101000a900473ffffffffffffffffffffffffffffffffffffffff16905086565b6001818154811061094257600080fd5b906000526020600020016000915054906101000a900473ffffffffffffffffffffffffffffffffffffffff1681565b6000600290806001815401808255809150506001900390600052602060002090600202016000909190919091506000820160009054906101000a900473ffffffffffffffffffffffffffffffffffffffff168160000160006101000a81548173ffffffffffffffffffffffffffffffffffffffff021916908373ffffffffffffffffffffffffffffffffffffffff1602179055506001820181600101908054610a1990611a52565b610a249291906111b1565b505050610a2f610fa0565b565b60028060000160009054906101000a900473ffffffffffffffffffffffffffffffffffffffff1690806001018054610a6890611a52565b80601f0160208091040260200160405190810160405280929190818152602001828054610a9490611a52565b8015610ae15780601f10610ab657610100808354040283529160200191610ae1565b820191906000526020600020905b815481529060010190602001808311610ac457829003601f168201915b5050505050905082565b60606001805480602002602001604051908101604052809291908181526020018280548015610b6f57602002820191906000526020600020905b8160009054906101000a900473ffffffffffffffffffffffffffffffffffffffff1673ffffffffffffffffffffffffffffffffffffffff1681526020019060010190808311610b25575b5050505050905090565b60008181548110610b8957600080fd5b90600052602060002090600202016000915090508060000160009054906101000a900473ffffffffffffffffffffffffffffffffffffffff1690806001018054610bd290611a52565b80601f0160208091040260200160405190810160405280929190818152602001828054610bfe90611a52565b8015610c4b5780601f10610c2057610100808354040283529160200191610c4b565b820191906000526020600020905b815481529060010190602001808311610c2e57829003601f168201915b5050505050905082565b60001515600760003373ffffffffffffffffffffffffffffffffffffffff1673ffffffffffffffffffffffffffffffffffffffff16815260200190815260200160002060040160009054906101000a900460ff16151514610ceb576040517f08c379a0000000000000000000000000000000000000000000000000000000008152600401610ce290611b1f565b60405180910390fd5b600160066000828254610cfe9190611b3f565b925050819055506040518060c00160405280600654815260200182815260200160008152602001600081526020016001151581526020013373ffffffffffffffffffffffffffffffffffffffff16815250600760003373ffffffffffffffffffffffffffffffffffffffff1673ffffffffffffffffffffffffffffffffffffffff168152602001908152602001600020600082015181600001556020820151816001019080519060200190610db492919061112b565b50604082015181600201556060820151816003015560808201518160040160006101000a81548160ff02191690831515021790555060a08201518160040160016101000a81548173ffffffffffffffffffffffffffffffffffffffff021916908373ffffffffffffffffffffffffffffffffffffffff1602179055509050506001339080600181540180825580915050600190039060005260206000200160009091909190916101000a81548173ffffffffffffffffffffffffffffffffffffffff021916908373ffffffffffffffffffffffffffffffffffffffff160217905550600460009054906101000a900460ff1615610f625760405180604001604052803373ffffffffffffffffffffffffffffffffffffffff16815260200182815250600260008201518160000160006101000a81548173ffffffffffffffffffffffffffffffffffffffff021916908373ffffffffffffffffffffffffffffffffffffffff1602179055506020820151816001019080519060200190610f3b92919061112b565b509050506000600460006101000a81548160ff021916908315150217905550426005819055505b7f31db96cba391ec694c7c7664232eed2e6b3a9cac6d2c20f9fd04aede2a0c82af60065482604051610f95929190611b95565b60405180910390a150565b6001600460006101000a81548160ff0219169083151502179055504260058190555060005b6001805490508110156110c8576007600060018381548110610fea57610fe9611bc5565b5b9060005260206000200160009054906101000a900473ffffffffffffffffffffffffffffffffffffffff1673ffffffffffffffffffffffffffffffffffffffff1673ffffffffffffffffffffffffffffffffffffffff168152602001908152602001600020600080820160009055600182016000611068919061123e565b600282016000905560038201600090556004820160006101000a81549060ff02191690556004820160016101000a81549073ffffffffffffffffffffffffffffffffffffffff0219169055505080806110c0906119da565b915050610fc5565b50600067ffffffffffffffff8111156110e4576110e3611837565b5b6040519080825280602002602001820160405280156111125781602001602082028036833780820191505090505b506001908051906020019061112892919061127e565b50565b82805461113790611a52565b90600052602060002090601f01602090048101928261115957600085556111a0565b82601f1061117257805160ff19168380011785556111a0565b828001600101855582156111a0579182015b8281111561119f578251825591602001919060010190611184565b5b5090506111ad9190611308565b5090565b8280546111bd90611a52565b90600052602060002090601f0160209004810192826111df576000855561122d565b82601f106111f0578054855561122d565b8280016001018555821561122d57600052602060002091601f016020900482015b8281111561122c578254825591600101919060010190611211565b5b50905061123a9190611308565b5090565b50805461124a90611a52565b6000825580601f1061125c575061127b565b601f01602090049060005260206000209081019061127a9190611308565b5b50565b8280548282559060005260206000209081019282156112f7579160200282015b828111156112f65782518260006101000a81548173ffffffffffffffffffffffffffffffffffffffff021916908373ffffffffffffffffffffffffffffffffffffffff1602179055509160200191906001019061129e565b5b5090506113049190611308565b5090565b5b80821115611321576000816000905550600101611309565b5090565b6000604051905090565b600080fd5b600080fd5b600073ffffffffffffffffffffffffffffffffffffffff82169050919050565b600061136482611339565b9050919050565b61137481611359565b811461137f57600080fd5b50565b6000813590506113918161136b565b92915050565b6000602082840312156113ad576113ac61132f565b5b60006113bb84828501611382565b91505092915050565b6000819050919050565b6113d7816113c4565b82525050565b60006020820190506113f260008301846113ce565b92915050565b600081519050919050565b600082825260208201905092915050565b6000819050602082019050919050565b61142d81611359565b82525050565b600081519050919050565b600082825260208201905092915050565b60005b8381101561146d578082015181840152602081019050611452565b8381111561147c576000848401525b50505050565b6000601f19601f8301169050919050565b600061149e82611433565b6114a8818561143e565b93506114b881856020860161144f565b6114c181611482565b840191505092915050565b60006040830160008301516114e46000860182611424565b50602083015184820360208601526114fc8282611493565b9150508091505092915050565b600061151583836114cc565b905092915050565b6000602082019050919050565b6000611535826113f8565b61153f8185611403565b93508360208202850161155185611414565b8060005b8581101561158d578484038952815161156e8582611509565b94506115798361151d565b925060208a01995050600181019050611555565b50829750879550505050505092915050565b600060208201905081810360008301526115b9818461152a565b905092915050565b60008115159050919050565b6115d6816115c1565b82525050565b60006020820190506115f160008301846115cd565b92915050565b61160081611359565b82525050565b600060208201905061161b60008301846115f7565b92915050565b600082825260208201905092915050565b600061163d82611433565b6116478185611621565b935061165781856020860161144f565b61166081611482565b840191505092915050565b600060c08201905061168060008301896113ce565b81810360208301526116928188611632565b90506116a160408301876113ce565b6116ae60608301866113ce565b6116bb60808301856115cd565b6116c860a08301846115f7565b979650505050505050565b6116dc816113c4565b81146116e757600080fd5b50565b6000813590506116f9816116d3565b92915050565b6000602082840312156117155761171461132f565b5b6000611723848285016116ea565b91505092915050565b600060408201905061174160008301856115f7565b81810360208301526117538184611632565b90509392505050565b600081519050919050565b600082825260208201905092915050565b6000819050602082019050919050565b60006117948383611424565b60208301905092915050565b6000602082019050919050565b60006117b88261175c565b6117c28185611767565b93506117cd83611778565b8060005b838110156117fe5781516117e58882611788565b97506117f0836117a0565b9250506001810190506117d1565b5085935050505092915050565b6000602082019050818103600083015261182581846117ad565b905092915050565b600080fd5b600080fd5b7f4e487b7100000000000000000000000000000000000000000000000000000000600052604160045260246000fd5b61186f82611482565b810181811067ffffffffffffffff8211171561188e5761188d611837565b5b80604052505050565b60006118a1611325565b90506118ad8282611866565b919050565b600067ffffffffffffffff8211156118cd576118cc611837565b5b6118d682611482565b9050602081019050919050565b82818337600083830152505050565b6000611905611900846118b2565b611897565b90508281526020810184848401111561192157611920611832565b5b61192c8482856118e3565b509392505050565b600082601f8301126119495761194861182d565b5b81356119598482602086016118f2565b91505092915050565b6000602082840312156119785761197761132f565b5b600082013567ffffffffffffffff81111561199657611995611334565b5b6119a284828501611934565b91505092915050565b7f4e487b7100000000000000000000000000000000000000000000000000000000600052601160045260246000fd5b60006119e5826113c4565b91507fffffffffffffffffffffffffffffffffffffffffffffffffffffffffffffffff821415611a1857611a176119ab565b5b600182019050919050565b7f4e487b7100000000000000000000000000000000000000000000000000000000600052602260045260246000fd5b60006002820490506001821680611a6a57607f821691505b60208210811415611a7e57611a7d611a23565b5b50919050565b6000604082019050611a9960008301856113ce565b611aa660208301846113ce565b9392505050565b7f416464726573732068617320616c726561647920656e7465726564206120546560008201527f7874000000000000000000000000000000000000000000000000000000000000602082015250565b6000611b09602283611621565b9150611b1482611aad565b604082019050919050565b60006020820190508181036000830152611b3881611afc565b9050919050565b6000611b4a826113c4565b9150611b55836113c4565b9250827fffffffffffffffffffffffffffffffffffffffffffffffffffffffffffffffff03821115611b8a57611b896119ab565b5b828201905092915050565b6000604082019050611baa60008301856113ce565b8181036020830152611bbc8184611632565b90509392505050565b7f4e487b7100000000000000000000000000000000000000000000000000000000600052603260045260246000fdfea26469706673582212200d86e0c8f0fde33af0fd9146a632e223a07bd4711ffae4068fe202b5378cd9a364736f6c634300080a0033",
  "immutableReferences": {
    "3": [
      {
        "length": 32,
        "start": 2079
      }
    ]
  },
  "source": "// SPDX-License-Identifier: MIT\npragma solidity >=0.4.22 <0.9.0;\n\ncontract Attentions {\n  address public immutable owner;\n\n  struct UserText {\n    uint id;\n    string value;\n    uint256 upvotes;\n    uint256 downvotes;\n    bool entered;\n    address user;\n  }\n\n  struct Winner{\n    address user;\n    string value;\n  }\n\n  event TextAdded(\n    uint id,\n    string value\n  );\n\n  event Upvote(\n    uint upvotes,\n    uint id\n  );\n\n  event Downvote(\n    uint downvotes,\n    uint id\n  );\n\n  Winner[] public pastWinners;\n  address[] public allUsers;\n\n  Winner public winner;\n\n  bool public firstText = true;\n  uint256 public time;\n  uint private id;\n\n  mapping(address => UserText) public UserEntries;\n\n  constructor() {\n    owner = msg.sender;\n  }\n\n  function getAllUsers() external view returns(address[] memory){\n    return allUsers;\n  }\n\n  function getAllPastWinners() external view returns(Winner[] memory){\n    return pastWinners;\n  }\n\n  function addTextToAddress(string memory text) public {\n    require(UserEntries[msg.sender].entered == false, 'Address has already entered a Text');\n    id += 1;\n    UserEntries[msg.sender] = UserText(id, text, 0, 0, true, msg.sender);\n    allUsers.push(msg.sender);\n\n    if (firstText) {\n      winner = Winner(msg.sender, text);\n      firstText = false;\n      time = block.timestamp;\n    }\n    \n    emit TextAdded(id, text);\n  }\n\n  function upvote(address user) public {\n    UserEntries[user].upvotes++;\n    // User who got an upvote who has more Upvotes than the current winner\n    if (UserEntries[user].upvotes > UserEntries[winner.user].upvotes) {\n      winner = Winner(user, UserEntries[user].value);\n    }\n\n    emit Upvote(UserEntries[user].upvotes, UserEntries[user].id);\n  }\n\n  function downvote(address user) public {\n    UserEntries[user].downvotes++;\n    emit Downvote(UserEntries[user].downvotes, UserEntries[user].id);\n  }\n\n  function endMatch() public {\n    // Todo => reinballern\n    // require(time + 1 minutes <= block.timestamp);\n    pastWinners.push(winner);\n    reset();\n  }\n\n  function reset() private {\n    firstText = true;\n    time = block.timestamp;\n    for (uint256 i = 0; i < allUsers.length; i++) {\n      delete UserEntries[allUsers[i]];\n    }\n\n    allUsers = new address[](0);\n  }\n}\n",
  "sourcePath": "C:\\Users\\breue\\Desktop\\Projekte\\Attentions\\Ethereum\\contracts\\Attentions.sol",
  "compiler": {
    "name": "solc",
    "version": "0.8.10+commit.fc410830.Emscripten.clang"
  },
  "schemaVersion": "3.4.4",
  "updatedAt": "2022-01-18T19:30:03.945Z",
  "networkType": "ethereum",
  "devdoc": {
    "kind": "dev",
    "methods": {},
    "version": 1
  },
  "userdoc": {
    "kind": "user",
    "methods": {},
    "version": 1
  }
}